:100000000C9463000C948B000C948B000C948B006C
:100010000C948B000C948B000C948B000C948B0034
:100020000C948B000C948B000C948B000C948B0024
:100030000C948B000C948B000C948B000C948B0014
:100040000C9487210C948B000C94F7210C94D121F3
:100050000C948B000C948B000C948B000C948B00F4
:100060000C948B000C948B000000000024002700EF
:100070002A0000000000250028002B0000000000DE
:1000800023002600290004040404040404040202DA
:100090000202020203030303030301020408102007
:1000A0004080010204081020010204081020000012
:1000B0000008000201000003040700000000000027
:1000C000000029225A2911241FBECFEFD8E0DEBF3D
:1000D000CDBF12E0A0E0B1E0E4E1FAE502C0059096
:1000E0000D92AA3CB107D9F724E0AAECB2E001C016
:1000F0001D92AF3BB207E1F710E0C2E6D0E004C0CA
:100100002197FE010E94D72AC136D107C9F70E9464
:1001100030230C94FD2C0C9400008F929F92AF9290
:10012000BF92CF92DF92EF92FF920F931F93CF93E4
:10013000DF9300D0CDB7DEB74C015B01D12CC12CD1
:10014000CA14DB0418F090E080E02DC0E091940424
:10015000F091950480919004909191040995161660
:10016000170618061906ECF41A821982E0918C041D
:10017000F0918D047B018C019E012F5F3F4FA50103
:100180004C195D09B4016C0D7D1D8091880490911E
:1001900089040995009739F489819A81C80ED91E7E
:1001A000CFCF8CEF9FEF0F900F90DF91CF911F91EA
:1001B0000F91FF90EF90DF90CF90BF90AF909F9006
:1001C0008F900895CF93DF93BC018091800490912C
:1001D00081040E948D00EC01892B89F44091770401
:1001E000509178046091790470917A04E0919204BE
:1001F000F091930480918E0490918F040995CE0123
:10020000DF91CF9108958F929F92AF92BF92CF923C
:10021000DF92EF92FF920F931F93CF93DF9300D063
:10022000CDB7DEB79C01260F371F40917E04509159
:100230007F044217530708F44CC05B014C01D12CDA
:10024000C12CCA14DB0418F090E080E033C0E091C8
:100250009404F091950480919004909191040995F3
:100260007B018C011E141F04100611060CF51A8266
:1002700019826091820470918304C4018C0D9D1DCC
:10028000680F791FE0918A04F0918B049E012F5F23
:100290003F4FA5014C195D09809188049091890414
:1002A0000995009739F489819A81C80ED91EC9CF62
:1002B0008CEF9FEF0F900F90DF91CF911F910F91D7
:1002C000FF90EF90DF90CF90BF90AF909F908F9076
:1002D00008958FEF9FEFEECF1092990480914B0419
:1002E00090914C04DC01ED91FC910488F589E02D9E
:1002F000099480914B0490914C04009711F480E094
:100300000895DC01ED91FC910688F789E02D0995AF
:100310008130A9F78091990408958CBD9DBD089501
:1003200020E3FC0120833296862F82958F706F70B8
:100330006A3030F4605D6293682F8111F5CF0895C3
:10034000695CF9CFFC01818D928D08950895833009
:1003500081F028F4813099F08230A9F00895873037
:10036000A9F08830C9F08430B1F4809180008F7D8D
:1003700003C0809180008F7780938000089584B5BA
:100380008F7784BD089584B58F7DFBCF8091B000B9
:100390008F778093B00008958091B0008F7DF9CF62
:1003A000CF93DF93282F30E0F901E255FF4F84917E
:1003B000F901E656FF4FD491F901EA57FF4FC49176
:1003C000CC23A1F081110E94A701EC2FF0E0EE0FE9
:1003D000FF1FE458FF4FA591B491EC91ED2381E00C
:1003E00090E009F480E0DF91CF91089580E090E003
:1003F000FACF1F93CF93DF93282F30E0F901E25516
:10040000FF4F8491F901E656FF4FD491F901EA5765
:10041000FF4FC491CC23A9F0162F81110E94A70190
:10042000EC2FF0E0EE0FFF1FEE58FF4FA591B491B7
:100430008FB7F894EC91111108C0D095DE23DC93AE
:100440008FBFDF91CF911F910895DE2BF8CFCF930F
:10045000DF9390E0FC01E656FF4F24918A579F4FAF
:10046000FC0184918823D1F090E0880F991FFC0152
:10047000E859FF4FA591B491FC01EE58FF4FC5918B
:10048000D49161110EC09FB7F8948C91E22FE09542
:100490008E238C932881E223E8839FBFDF91CF9145
:1004A00008958FB7F894EC91E22BEC938FBFF6CFC1
:1004B0003FB7F8948091410390914203A091430388
:1004C000B091440326B5A89B05C02F3F19F00196B3
:1004D000A11DB11D3FBFBA2FA92F982F8827BC019E
:1004E000CD01620F711D811D911D42E0660F771FC6
:1004F000881F991F4A95D1F708958F929F92AF92C6
:10050000BF92CF92DF92EF92FF924B015C010E946B
:1005100058026B017C010E9458026C197D098E09FA
:100520009F09683E734081059105A8F321E0821A76
:100530009108A108B10888EEC80E83E0D81EE11C1E
:10054000F11C81149104A104B10429F7FF90EF90EC
:10055000DF90CF90BF90AF909F908F9008952FB76E
:10056000F89460913D0370913E0380913F03909118
:1005700040032FBF0895CF93DF93EC014C835D833D
:100580006E837F83E885F985309741F0099568830C
:1005900079838A839B83DF91CF9108950E94AF0274
:1005A000F6CFCF92DF92EF92FF920F931F93CF93EC
:1005B000DF93EC01E885F985309739F109950881D9
:1005C00019812A813B81601771078207930700F523
:1005D0000095109520953095600F711F821F931F15
:1005E0000C811D812E813F8168017901C61AD70ACD
:1005F000E80AF90AC701B601DF91CF911F910F9167
:10060000FF90EF90DF90CF9008950E94AF02D7CF78
:10061000601B710B820B930BE3CF2F923F924F9293
:100620005F926F927F928F929F92AF92BF92CF9282
:10063000DF92EF92FF920F931F93CF93DF9300D03F
:1006400000D0CDB7DEB79A8389836B015C834B837F
:100650001901270138010E94AF024B015C01D10151
:100660001D921C92EB81FC81EF2B91F10E94AF0255
:10067000681979098A099B09641575058605970526
:1006800038F5A981BA818D919C91DC01ED91FC91A5
:100690000288F389E02D4B815C81B601099518161B
:1006A0001906A4F161E070E080E090E00E947D0214
:1006B000A981BA818D919C91DC01ED91FC91068814
:1006C000F789E02D09958111CDCF8BEF9FEF07C002
:1006D000F10180819181892B51F190E080E00F90B0
:1006E0000F900F900F90DF91CF911F910F91FF907E
:1006F000EF90DF90CF90BF90AF909F908F907F90C2
:100700006F905F904F903F902F900895C80ED91E24
:10071000D1012D913C911197280F391F2D933C93B6
:10072000EB81FC81E81BF90BFC83EB839BCF8CEF07
:100730009FEFD5CFCF93DF93E901DC018D919C91A1
:10074000DC01ED91FC910280F381E02D0995998304
:100750008883892B29F090E080E0DF91CF91089584
:100760008AEF9FEFFACF0895AF92BF92CF92DF92B8
:10077000EF92FF920F931F93CF93DF936C017B0156
:100780008B01040F151FEB015E01AE18BF08C017E7
:10079000D10759F06991D601ED91FC910190F0815A
:1007A000E02DC6010995892B79F7C501DF91CF911D
:1007B0001F910F91FF90EF90DF90CF90BF90AF907F
:1007C0000895FC01538D448D252F30E0842F90E057
:1007D000821B930B541710F0CF960895019708953C
:1007E000FC01918D828D981761F0A28DAE0FBF2F05
:1007F000B11D5D968C91928D9F5F9F73928F90E05B
:1008000008958FEF9FEF0895FC01918D828D9817C9
:1008100031F0828DE80FF11D858D90E008958FEF06
:100820009FEF0895FC01918D228D892F90E0805CCF
:100830009F4F821B91098F739927089582E693E059
:100840000E94120421E0892B09F420E0822F0895F0
:1008500080E090E0892B29F00E941E0481110C9405
:1008600000000895FC01A48DA80FB92FB11DA35A53
:10087000BF4F2C91848D90E001968F739927848FC0
:10088000A689B7892C93A089B1898C9183708064E3
:100890008C93938D848D981306C00288F389E02D84
:1008A00080818F7D80830895EF92FF920F931F9335
:1008B000CF93DF93EC0181E0888F9B8D8C8D981313
:1008C0001AC0E889F989808185FF15C09FB7F8941F
:1008D000EE89FF896083E889F9898081837080646B
:1008E00080839FBF81E090E0DF91CF911F910F91B6
:1008F000FF90EF900895F62E0B8D10E00F5F1F4FC5
:100900000F731127E02E8C8D8E110CC00FB607FCD3
:10091000FACFE889F989808185FFF5CFCE010E9461
:100920003204F1CFEB8DEC0FFD2FF11DE35AFF4F99
:10093000F0829FB7F8940B8FEA89FB8980818062EF
:10094000CFCFCF93DF93EC01888D8823B9F0AA89AC
:10095000BB89E889F9898C9185FD03C0808186FD7A
:100960000DC00FB607FCF7CF8C9185FFF2CF8081C9
:1009700085FFEDCFCE010E943204E9CFDF91CF9108
:1009800008950F931F93CF93DF93EC01B0E0A0E0A5
:10099000E881F9818D010F5F1F4FCB018E1B9F0BEB
:1009A0008017910758F1822F8F7797E056954795DA
:1009B000379527959A95D1F72115310541055105B0
:1009C00009F08068EA0FFB1F80832115310541057E
:1009D000510569F488819981800F911F99838883DB
:1009E00090E080E0DF91CF911F910F910895D801A1
:1009F0000430110569F68EEF9FEFF4CF8FEF9FEF74
:100A0000F1CF4F925F926F927F929F92AF92BF927F
:100A1000CF92DF92EF92FF920F931F93CF93DF93CA
:100A20006C018A01DA011D921D921D921C9213978E
:100A3000DC01ED91FC917B01EE1AFF0A5F01D0E031
:100A4000C0E0412C512C320143942196EC16FD0656
:100A5000E0F1C530D105E1F1D5019D905D01A92DF1
:100A6000AF77B0E0A30192010E94552AD8012D91E1
:100A70003D914D915C911397260F371F481F591FC9
:100A80002D933D934D935C93139787E0440C551C35
:100A9000661C771C8A95D1F797FCD7CFEC0FFD1F0A
:100AA000D601ED93FC9390E080E0DF91CF911F9110
:100AB0000F91FF90EF90DF90CF90BF90AF909F90FD
:100AC0007F906F905F904F9008958FEF9FEFEDCFE5
:100AD0008EEF9FEFEACFFA0160387105810591052D
:100AE00038F481E090E09183808390E080E0089585
:100AF000611520E472078105910518F482E090E009
:100B0000F2CF6F3F2FEF72072FE18207910518F4A4
:100B100083E090E0E8CF6F3F7F4F8F4F9F4018F406
:100B200084E090E0E0CF118210828EEF9FEF089575
:100B3000FC01A081B181A617B70729F4DA011C9244
:100B40008FEF9FEF08958C91DA018C9380819181D2
:100B500001969183808390E080E00895FC01A0815C
:100B6000B1816A1B7B0B6230710568F05C93A081D8
:100B7000B18111964C9380819181029691838083FB
:100B800090E080E008958FEF9FEF0895AF92BF92BD
:100B9000CF92DF92EF92FF920F931F93CF93DF9349
:100BA00000D0CDB7DEB77C01E60EF71EE1E0F0E045
:100BB0002630310511F0F0E0E0E0EE0FFF1F74E0A9
:100BC000220F331F7A95E1F7E22BE816F90669F157
:100BD0006A015C01DC01ED93BA83A98322E030E075
:100BE00040E050E0B701CE0101960E94C104009799
:100BF00079F4A801B701CE0101960E94AE050097D5
:100C000039F429813A812A193B09F601318320837D
:100C10000F900F90DF91CF911F910F91FF90EF9068
:100C2000DF90CF90BF90AF9008958FEF9FEFF0CF00
:100C3000CF93DF93DC01ED91FC9111976E1B7F0B3D
:100C40006230710540F4EA01198218828FEF9FEF3C
:100C5000DF91CF910895208130E0322F22279181BA
:100C6000290F311DEA01398328833296ED93FC93D5
:100C700090E080E0EDCFCF92DF92EF92FF920F9362
:100C80001F93CF93DF9300D000D000D01F92CDB739
:100C9000DEB76A0179019E838D838C01060F171FD1
:100CA0001F82AE01495F5F4FB801CE0105960E94D9
:100CB0009805009729F52F81207F30E084E0359555
:100CC00027958A95E1F787EF9FEF2C153D05C1F435
:100CD000AE014F5F5F4FB801CE0105960E9401053E
:100CE000009771F489819A81AB81BC810297A1053B
:100CF000B105A9F4A701B801CE0105960E94180616
:100D000027960FB6F894DEBF0FBECDBFDF91CF910F
:100D10001F910F91FF90EF90DF90CF90089588EF93
:100D20009FEFEECF2F923F924F925F926F927F9202
:100D30008F929F92AF92BF92CF92DF92EF92FF92EB
:100D40000F931F93CF93DF93CDB7DEB766970FB6A0
:100D5000F894DEBF0FBECDBF3C017E8B6D8B1A01B8
:100D6000F12CE12CF3011182108261E070E090E03F
:100D700080E00E9403018C3FFFEF9F0709F420C130
:100D8000009709F05AC06091820470918304F301C6
:100D9000118210827A8369836F5F7F4FAE01485F53
:100DA0005F4FCE0101960E949805009709F045C05B
:100DB0008885807F90E034E0959587953A95E1F7B6
:100DC000F301918380838930910579F04CF4029787
:100DD000069758F0F3011182108287EF9FEF2DC024
:100DE0008B30910511F00D97A9F719821A821B8299
:100DF0001C8210E000E02801FFEF4F1A5F0A61E05B
:100E000070E0C2010E9403010097B9F4609182046E
:100E1000709183046F5F7F4F79876887640D751DBC
:100E2000AE014F5F5F4FCE0108960E9401058E3FD5
:100E30002FEF9207D9F489EF9FEF66960FB6F894DB
:100E4000DEBF0FBECDBFDF91CF911F910F91FF90FD
:100E5000EF90DF90CF90BF90AF909F908F907F905A
:100E60006F905F904F903F902F9008950097C9F436
:100E700069817A818B819C814B012091960421119B
:100E80001AC0611571058105910509F091C089802D
:100E90009A80FFEF8F1A9F0A8E0C9F1C840C951C62
:100EA00035C019821A821B821C8282018F3F9807EB
:100EB00009F4A1CFC2CF98012E5F3F4F5B016C01B7
:100EC000A20EB31EC11CD11C20917E0430917F0460
:100ED00050E040E02A153B054C055D0590F6811475
:100EE000910489F5F30111821082E0919704F09149
:100EF0009804309759F080819181A281B381019645
:100F0000A11DB11D80839183A283B383F3018081EE
:100F10009181009709F48BC18530910509F43AC19C
:100F200008F050C0039709F457C02114310409F4A4
:100F300075C1F301808191812816390609F07AC1C3
:100F400090E080E07ACFE0919404F0919504809154
:100F500090049091910409957B018C011E141F044B
:100F60001006110614F540917E0450917F048416FA
:100F7000950608F4A4011986188660918204709180
:100F80008304E0918A04F0918B049E01285F3F4F17
:100F900080918804909189040995009709F04DCFBC
:100FA00088859985881A990A9ACF8CEF9FEF45CF4B
:100FB000C80102960E940301009709F468CF3DCF53
:100FC0004701A4CF8630910509F40DC10D9709F0B2
:100FD000ACCF10927B04A9CF80917E0490917F04C6
:100FE000E0908204F0908304FF86EE86E80EF91EFE
:100FF000AE01405F5F4FB701CE010E960E9498058B
:10100000009709F01ACF8889982F907F903309F0C4
:10101000E4CE982F91709B83867090E0959587958C
:10102000813009F49AC0512C412C823019F492E09D
:10103000492E512CAE01485F5F4FB701CE010E968D
:101040000E940105009709F0F8CE488559856A8508
:101050007B85423051056105710508F498C00E8505
:101060001F85E01AF10AC701FF0CAA0BBB0B8417FE
:101070009507A607B70708F4D7C0040F151FAE01E0
:10108000445F5F4FB801CE010E960E94180600978C
:1010900009F0D3CE2C853D852115310509F061C0BD
:1010A0001C8A1B8A3A8B298B4114510409F469C0AC
:1010B000AE01445F5F4FB801CE010E960E94180644
:1010C000009709F0BACE8E859F85081B190B1F83E8
:1010D0000E83012B09F058C01D821C82E09184040C
:1010E000F09185043097A1F0609186047091870497
:1010F000A42C5A824982BA80CB80DC80ED80FE80AD
:101100000F8129893A894B895C8985E794E00995A3
:101110004114510409F409CF24E030E04A944528F1
:1011200011F025E030E00C851D8560917C04709104
:101130007D04AE01485F5F4F8091800490918104EF
:101140000E94C605009709F078CE888599850E948F
:10115000E200009709F4E9CE70CE44244394512C68
:1011600069CF8E859F85A801481B590B42175307ED
:1011700008F45AC09C8B8B8B820F931F9F878E879E
:1011800091CF1D861C869FCF9D838C83A7CF88EF30
:101190009FEF53CE60917E0470917F049E01285F83
:1011A0003F4F45E050E080918204909183040E947B
:1011B0003B06009709F041CE0885198560917C04B3
:1011C00070917D0426E030E0AE014F5F5F4F80916B
:1011D0008004909181040E94C605009709F02DCEED
:1011E00089819A81B4CF60917E0470917F049E01C1
:1011F000285F3F4F46E050E0809182049091830445
:101200000E943B06009709F018CE08851985609169
:101210007C0470917D0427E030E0D6CF8D899E89D3
:10122000892B09F086CE8CCE8FEF9FEF06CE21144E
:101230003104A1F3E0919404F0919504809190041D
:1012400090919104099516161706180619060CF0C8
:1012500077CEED89FE89309721F08E169F0608F033
:101260006FCE74017FCDFC0120812EBD9B012150EA
:10127000310941F051810DB407FEFDCF4EB55EBD81
:101280004193F5CF61507109860F971F0DB407FE8A
:10129000FDCF2EB5FC0120830895E091CB02F091A3
:1012A000CC0280819091CA02892B80830895E091BD
:1012B000CB02F091CC0290818091CA028095892363
:1012C000808308958EBD00000DB407FEFDCF8EB55E
:1012D0000895AF92BF92CF92DF92EF92FF920F9359
:1012E0001F93CF93DF93CDB7DEB728970FB6F8944F
:1012F000DEBF0FBECDBF8C017B016A01809161030F
:101300008333E1F45801A40EB51EA016B10609F40A
:101310006FC00E94570980EF0E946209812F0E94CE
:101320006209802F0E9462090F5F1F4FF7018191B0
:101330007F010E9462090E944D09E7CF5B01A40E64
:10134000B51E8433C1F40E94570919830A838D2D79
:1013500080688B83CC8264E070E0CE0101960E94AD
:101360003309AE14BF0409F441C0F70181917F0134
:101370000E946209F6CF0E9457090F3F110509F03C
:1013800028F419820A8384E08B830CC017FD17C0F0
:1013900019820A8333E0169507953A95E1F7007EA6
:1013A0000C600B8386E0C816D104A0F5F701DE01BE
:1013B0001496EA15FB0599F081918D93FACFC80137
:1013C00026E0969587952A95E1F7807E19830A8312
:1013D0000115104C10F48461D7CF8C61D5CFB601C4
:1013E0006D5F7F4FCE0101960E9433090E944D0927
:1013F000C60128960FB6F894DEBF0FBECDBFDF91B1
:10140000CF911F910F91FF90EF90DF90CF90BF9001
:10141000AF90089563E070E0CE0101960E94330919
:10142000F70181917F010E946209AE14BF04C1F7E8
:10143000DDCFCF93DF931F92CDB7DEB7898341E035
:1014400050E0BE016F5F7F4F90E080E00E9469092D
:101450000F90DF91CF91089590E0209161032333A5
:1014600039F40C96982F990F990F990F80E00895F1
:101470004896F8CFDA01E091CE02F0E0FE2FEE2799
:10148000E60FF71F90E0982F8827A901BD018E0F66
:101490009F1F0C946909CF93DF9300D0CDB7DEB7BF
:1014A00079836A8322E030E0AE014F5F5F4F60E1F5
:1014B00070E00E943A0A0F900F90DF91CF9108954B
:1014C000CF93DF9300D0CDB7DEB779836A8322E074
:1014D00030E0AE014F5F5F4F64E070E00E943A0A77
:1014E0000F900F90DF91CF910895CF93DF931F92CC
:1014F000CDB7DEB72091CE0230E0322F2227260F63
:10150000371F90E0982F8827498341E050E0BE01C3
:101510006F5F7F4F820F931F0E9469090F90DF91C9
:10152000CF910895CF93DF931F92CDB7DEB7698334
:10153000DC01ED91FC910280F381E02D41E050E06F
:10154000BE016F5F7F4F09950F90DF91CF91089596
:10155000FC019485FB018485981303C081E09430DD
:1015600008F080E00895CF93DF931F92CDB7DEB7E8
:101570006983DC01ED91FC910280F381E02D41E073
:1015800050E0BE016F5F7F4F09950F90DF91CF91C3
:1015900008950895FF920F931F93CF93DF93EB016C
:1015A000FC01178A168A2A81211109C02B81211179
:1015B00006C02C81211103C02D81222301F1411588
:1015C0005105E9F08A01FC01F08C80E591E00E9470
:1015D0008D01AE014E5F5F4F24E030E06CE070E0C3
:1015E0008F2D0E943A0AB8018F2D0E944B0A81E08C
:1015F00090E0DF91CF911F910F91FF90089580E0CF
:10160000F7CFFC01848595850895FC01848995892F
:1016100008952AE831E0FC0131832083FB014089F1
:10162000518962897389FC01428353836483758382
:101630000895DC01ED91FC91048CF58DE02D099469
:1016400090E080E00895FC01768765870895DC01CD
:10165000ED91FC9102A0F3A1E02D099591E089277D
:101660000895862F089581E08627089521E0FC01E2
:101670008485843008F020E0822F08950895FB01CE
:1016800001900020E9F73197AF01461B570BDC01B1
:10169000ED91FC910280F381E02D09948F929F924D
:1016A000AF92BF92EF92FF920F931F93CF93DF936E
:1016B000CDB7DEB7A1970FB6F894DEBF0FBECDBF92
:1016C0007C01FA01CB0119A2223008F42AE08E0134
:1016D0000F5D1F4F822E912CB12CA12CBF01A501B3
:1016E00094010E949F2AF901CA016A300CF5605DDD
:1016F000D8016E938D01232B242B252B79F790E0B5
:1017000080E0109721F0BD01C7010E943F0BA19618
:101710000FB6F894DEBF0FBECDBFDF91CF911F9102
:101720000F91FF90EF90BF90AF909F908F90089592
:10173000695CDECF8F929F92AF92BF92CF92DF9281
:10174000EF92FF920F931F93CF93DF937C01EB01F6
:101750006C0182E0C80ED11C4701E5E08E0E911CA1
:1017600010E000E0F60141916F0150E070E060E0B0
:101770002AE0CE010E944E0B5C01E881F9810190C4
:10178000F081E02D6EE2CE0109958A0D9B1D080FB8
:10179000191FC814D90431F7F701458150E070E0F2
:1017A00060E02AE0CE010E944E0B800F911FDF9176
:1017B000CF911F910F91FF90EF90DF90CF90BF904E
:1017C000AF909F908F900895CF93DF93BC0182E6F6
:1017D00093E00E943F0BEC016CE871E082E693E03D
:1017E0000E943F0B8C0F9D1FDF91CF910895DC016C
:1017F000FC0101900020E9F73197E81BF90B60E04C
:1018000070E0CB0109F40895BF01CD010895DC011A
:101810008AE891E08D939D9384E0FB0101900D9205
:101820008A95E1F708958F929F92AF92BF92CF92DF
:10183000DF92EF92FF920F931F93CF93DF93EC0110
:101840008B0149015A01A9010E94AE057C01892B37
:10185000A1F48114910489F088819981081B190BE6
:1018600008151905C0F0A401B5010E94E62C888175
:101870009981880E991E99828882C701DF91CF9144
:101880001F910F91FF90EF90DF90CF90BF90AF909E
:101890009F908F900895EE24EA94FE2CEECF2F9225
:1018A0003F924F925F926F927F928F929F92AF92F0
:1018B000BF92CF92DF92EF92FF920F931F93CF933D
:1018C000DF9300D000D01F92CDB7DEB77C016B0153
:1018D000FB0101900020E9F731978F01061B170BE0
:1018E0000E9479018D83882309F479C080919A043C
:1018F00090919B04892B21F010929B0410929A04E2
:101900008090460490904704A0904804B090490409
:10191000C7010E94F70B2B013C01E0919204F0916A
:101920009304B501A40180919004909191040995CC
:10193000E0907C04F0907D0420908004309081043D
:101940003C822B82E20CF31CC20102964801B12CAE
:10195000A12C880E991EA11CB11CAE014F5F5F4FD8
:10196000C501B4010E946B05029679F1EB81FC81FF
:10197000EE15FF0509F453C080E380838B819C81C1
:1019800001969C838B83A5019401B701CE01039638
:101990000E94C104009789F4A3019201B701CE010E
:1019A00003960E94130C009741F48B819C8182194D
:1019B00093090E94E200009759F090939F0480934E
:1019C0009E040E946C011D820AC089EF9FEFF5CF33
:1019D00001151105E9F410929F0410929E048D8167
:1019E0000F900F900F900F900F90DF91CF911F915C
:1019F0000F91FF90EF90DF90CF90BF90AF909F90AE
:101A00008F907F906F905F904F903F902F900895B0
:101A1000B801C6010E948D000097E9F2CECF8FEF8A
:101A20009FEFCBCF2F923F924F925F926F927F9218
:101A30008F929F92AF92BF92CF92DF92EF92FF92DE
:101A40000F931F93CF93DF93CDB7DEB7A2970FB657
:101A5000F894DEBF0FBECDBF6FE871E082E693E081
:101A60000E943F0B0E94790181110E946C018091BC
:101A70004B0490914C049093600480935F046091B8
:101A80004D0470914E044091550450915604DC0170
:101A9000ED91FC9161157105D1F00088F189E02D7F
:101AA00009951816190654F18DEF9FEF90939F0436
:101AB00080939E046BE971E082E693E00E943F0B05
:101AC00068EE73E080E090E00E947D02CBCF068458
:101AD000F785E02D2AE831E03A832983009151040B
:101AE0001091520420915304309154040B831C83B1
:101AF0002D833E83BE016F5F7F4FD2CF8090430422
:101B000090904404309145043F8F8DE991E00E940C
:101B1000F70B69837A838B839C83462E572E85EA45
:101B200091E00E94F70B688779878A879B87A62EAA
:101B3000B72E84EC91E00E94F70B6C877D878E872F
:101B40009F87C62ED72EE0905704F09058044091FE
:101B50004604509147046091480470914904E09113
:101B60009204F091930480919004909191040995CE
:101B70009401A8EEB3E00E94C12AAB01BC014093DE
:101B80007704509378046093790470937A04E09119
:101B90009204F091930480918E0490918F040995A2
:101BA00010927B0400917C0410917D0420908004AD
:101BB00030908104388E2F8A020D131D82E0480E6A
:101BC000511C712C612C9AE0490E511C611C711C36
:101BD000E114F10471F0D7018D919C911197179642
:101BE0002D913C91820F931F0496480E591E611C43
:101BF000711CA114B10419F4C114D10479F0C50108
:101C00000296480E591E611C711CC114D10431F09A
:101C1000C6010296480E591E611C711CAE014D5E34
:101C20005F4FC301B2010E946B05029609F44AC1DD
:101C3000EF89F88DE017F10709F403C380E1808391
:101C40008F89988D0196988F8F8BA3019201B8018F
:101C5000CE0147960E94C104009709F02FC189ED7B
:101C600091E00E94F70B9B01AC01B801CE014796B1
:101C70000E94130C009709F021C1EF89F88DE0173D
:101C8000F10709F4DEC284E08083EF89F88D9F01BB
:101C90002F5F3F4F388F2F8B8F8D482F50E0440F91
:101CA000551FE114F10489F0D70114968C91149713
:101CB000880F880F880F4460842B8F7D16964C9177
:101CC000B0E24B9FA0011124482BA114B10419F4D8
:101CD000C114D10429F0C114D10409F0D0C0406866
:101CE0002017310709F4ADC241838F89988D019681
:101CF000988F8F8BA401B801CE0147960E94AE0544
:101D0000009709F0DBC029813A814B815C81B801E1
:101D1000CE0147960E94130C009709F0CFC0E11442
:101D2000F10499F1F7012081318142815381B80199
:101D3000CE0147960E94130C009709F0BFC0D7014F
:101D400017964D915C91B801CE0147960E94AE0561
:101D5000009709F0B3C0F701878090848114910443
:101D6000A1F08F89988D9801281B390B281539050A
:101D700008F467C261857285A4010E94E62C8F89F0
:101D8000988D880E991E988E8F8AA114B10409F03F
:101D900078C0C114D10409F074C08F89988D82195C
:101DA00093090E94E200009709F088C01A8E198EEC
:101DB00042E050E070E060E0CE0149960E94920659
:101DC000009709F07BC0898D9A8D029709F0A9C010
:101DD00080917E0490917F0400918204109183048D
:101DE000188F0F8B080F191FAE01425E5F4FB801AD
:101DF000CE0147960E949805009709F05FC08E8D2E
:101E0000807F803209F08DC0AE014D5E5F4FB8011A
:101E1000CE0147960E940105009709F04FC08B89BB
:101E20009C89AD89BE890297A105B10509F073C0EF
:101E3000AE01435E5F4FB801CE0147960E94980500
:101E40000097E1F5AE01455E5F4FB801CE014796C0
:101E50000E949805009791F54D8D41702B8D223091
:101E600009F450C008F040C0222309F445C02130D5
:101E700009F445C026E030E086EF9FEF28C0406CB3
:101E80002FCF288539854A855B85B801CE014796D5
:101E90000E94130C009791F4AB2809F47ECFCD2853
:101EA00009F47BCF2C853D854E855F85B801CE0139
:101EB00047960E94130C009709F46FCF40E026E08C
:101EC00030E005C040E026E030E089EF9FEF9093DE
:101ED0009F0480939E0430939D0420939C04892B3F
:101EE00031F10E946C01E6CD243091F070F0253084
:101EF00009F625E030E0C0CF30E020E0E8CF21E077
:101F000030E0BACF22E030E0B7CF23E030E0B4CF0A
:101F100024E030E0B1CF40E026E030E088EF9FEFF2
:101F2000D6CF40E026E030E087EF9FEFD0CF409360
:101F30004A0481E0809399048EED91E00E94E40BC5
:101F40000E947901882309F454C1C0904604D090BE
:101F50004704E0904804F09049048AEE91E00E9422
:101F6000F70B6F8F78A389A39AA3E0919204F09165
:101F70009304B701A6018091900490919104099572
:101F8000C0907504D0907604FFEFCF16DF0609F0FD
:101F900086C081E090E09093760480937504CC2411
:101FA000C394D12CE0907C04F0907D048090800458
:101FB000909081049C8A8B8AE80CF91C8F8D98A1E3
:101FC0000396B0E0A0E02C013D0132E0430E511C2D
:101FD000611C711CAE014F5F5F4FC301B2010E94D3
:101FE0006B05029609F463C0EB89FC89EE15FF05C9
:101FF00009F42AC182E880838B899C8901969C8B95
:102000008B8BA3019201B701CE0143960E94C104BC
:102010008C01892B09F0E1C0A601B701CE014396DE
:102020000E94AE058C01892B09F0D7C02F8D38A1F5
:1020300049A15AA1B701CE0143960E94130C8C010D
:10204000892B09F0CAC0EB89FC89EE15FF0509F45C
:10205000FBC010828B899C890196881999090E947E
:10206000E2008C01892B09F0B8C01C8E1B8E49E060
:1020700050E070E060E0CE014B960E9492068C0129
:10208000892B09F0AAC08B8D9C8D0997F1F00FB6B2
:10209000F894DEBF0FBECDBF87EF9FEF0FC02FEFCD
:1020A000C21AD20AD0927604C09275047BCF0FB6C2
:1020B000F894DEBF0FBECDBF89EF9FEF90939F04D2
:1020C00080939E040E946C0194C080917E04909144
:1020D0007F04E0908204F0908304F88EEF8AE80E8B
:1020E000F91EAE01425E5F4FB701CE0147960E94D6
:1020F00098058C01892B09F070C08E8D807F803906
:1021000031F6AE014F5F5F4FB701CE0147960E9497
:1021100001058C01892B09F060C089819A81AB810E
:10212000BC810397A105B10540F40FB6F894DEBF5A
:102130000FBECDBF88EF9FEFC1CFAE01475E5F4FAF
:10214000B701CE0147960E9418068C01892B09F031
:1021500044C0FE0173963F016F01912C812C80E8F1
:10216000282E312C92E0492E512C89819A81029798
:10217000881699061CF090E080E05CC0F2E08F16B3
:10218000910441F1AE01435E5F4FB701CE01479626
:102190000E949805009701F58D8D813089F030F00F
:1021A0008230A1F0F6013182208203C0D6011D9257
:1021B0001C92FFEF8F1A9F0A22E0C20ED11CD5CFCE
:1021C00021E030E0F60131832083F3CFD6014D9238
:1021D0005C92EFCF84EF9FEF8C010FB6F894DEBFD7
:1021E0000FBECDBF10939F0400939E04012B09F0F6
:1021F00069CFA2960FB6F894DEBF0FBECDBFDF91B8
:10220000CF911F910F91FF90EF90DF90CF90BF90F3
:10221000AF909F908F907F906F905F904F903F9086
:102220002F900895D3012D913D913D012038310526
:1022300029F0019688159905A9F7CFCF05EF1FEF73
:10224000CCCF8FEF9FEF3ACE0FEF1FEFC6CFCF93DC
:10225000DF93EC0188819981009711F00E94792B1E
:10226000198218821D821C821B821A82DF91CF91F3
:102270000895FC0180819181009711F00C94792BD5
:1022800008950C94792BAF92BF92CF92DF92EF9288
:10229000FF920F931F93CF93DF9300D000D0CDB761
:1022A000DEB78C016B017A01809161038333E9F41D
:1022B0005B016801C40ED51EC016D106A9F10E94AB
:1022C00057098FE00E946209812F0E946209802FC6
:1022D0000E9462090F5F1F4F80E00E946209F501B2
:1022E00081935F010E944D09E7CF843369F50E9415
:1022F000570919830A838F2D8F778B83EC8264E0D3
:1023000070E0CE0101960E943309A70170E060E001
:10231000C6010E94EF2CE114F10421F0B701C601BF
:102320000E9433090E944D09C7010F900F900F9032
:102330000F90DF91CF911F910F91FF90EF90DF9061
:10234000CF90BF90AF9008950E9457090F3F11059D
:1023500009F030F419820A831B8263E070E0D1CF68
:1023600017FD0BC019820A8333E0169507953A953D
:10237000E1F7007E08600B83F0CFC80126E0969558
:1023800087952A95E1F7807E19830A830115104C01
:1023900018F480618B83E1CF8861FCCFCF93DF930A
:1023A0001F92CDB7DEB72091CE0230E0322F222728
:1023B000260F371F90E0982F882741E050E0BE019C
:1023C0006F5F7F4F820F931F0E94431189810F908F
:1023D000DF91CF910895CF93C82F462F61E070E031
:1023E0000E94750A61E070E08C2F0E94CE1181116D
:1023F000F9CFCF910895CF93C82F80E591E00E9447
:102400008D0168E070E08C2FCF910C94EB11CF938D
:10241000C82F80E591E00E948D0160E170E08C2F73
:10242000CF910C94EB11CF93DF93EC01888D843026
:1024300020F40E94071284E0888FDF91CF910895E5
:10244000CF93C82F80E591E00E948D0163E070E09A
:102450008C2FCF910C94CE11CF93DF93EC018C8510
:102460008430D0F40E942012843189F0882379F0DE
:10247000883169F021E08C3159F4E881F9810084D8
:10248000F185E02DCE01099521E0892B09F420E0AA
:10249000822FDF91CF91089580E0FBCFCF92DF9222
:1024A000EF92FF92CF93DF93EC018C85843068F438
:1024B0000E94FB110E94AF026B017C018C850E947F
:1024C0002012811109C084E08C87DF91CF91FF90A9
:1024D000EF90DF90CF90089561E070E080E090E0B1
:1024E0000E947D020E94AF02AB01BC014C195D0944
:1024F0006E097F098D859E85B0E0A0E048175907D9
:102500006A077B07D8F28C850E940712DCCFCF9335
:10251000FC01C08D80E591E00E948D0160E270E0D9
:102520008C2F0E94EB1162E070E08C2F0E94CE1184
:1025300084FD16C062E070E08C2F0E94CE1183FFF4
:102540000AC048E162E070E08C2F0E94750A80E0CA
:1025500090E0CF91089580E591E00E948D01E3CF56
:1025600040E162E070E08C2F0E94750A81E0F0CFBC
:10257000CF93DF931F92CDB7DEB741E050E0BE01AD
:102580006F5F7F4F90E080E00E94431189810F9040
:10259000DF91CF910895CF93DF93C4E1D0E00E9403
:1025A000B812882361F061E070E080E090E00E9462
:1025B0007D022197A1F780E0DF91CF91089581E01E
:1025C000FBCF1F93CF93DF931F92CDB7DEB7182FAA
:1025D00080E591E00E948D01812F0E942C0A27E066
:1025E000129FF0011124EB5BFC4F22813381377085
:1025F00041E050E0BE016F5F7F4F820F931F0E944A
:10260000431189810F90DF91CF911F910895FC01B3
:10261000808D843040F4218D328D232B21F00E9457
:10262000E11290E008958FEF9FEF0895CF93DF932D
:10263000FC012485243028F08FEF9FEFDF91CF91AC
:102640000895EC010190F081E02D0084F185E02DEA
:102650000995892B89F38C850E94E11290E0EECFD9
:10266000DA01E091CE02F0E0FE2FEE27E60FF71F31
:1026700090E0982F8827A901BD018E0F9F1F0C9411
:1026800043118F929F92AF92BF92CF92DF92EF92BF
:10269000FF921F93CF93DF93CDB7DEB72C970FB682
:1026A000F894DEBF0FBECDBF2091610314E022235A
:1026B00039F16B017C0180E591E00E948D015E01A2
:1026C00027E0A20EB11C450110E063E070E0812F0D
:1026D0000E94CE11F40181934F01882349F11F5FBD
:1026E000143099F710E0F50181915F018D31D9F037
:1026F0008831C9F08A518230B0F01F5F143099F7E9
:10270000812F2C960FB6F894DEBF0FBECDBFDF91A0
:10271000CF911F91FF90EF90DF90CF90BF90AF903F
:102720009F908F90089560E170E0812F0E94EB11DF
:10273000A12EB12C83EE93E00197F1F742E870E00F
:1027400060E0812F0E94750A4FEF62E070E0812FF8
:102750000E94750AB601C114D10491F4809106015A
:102760009091070101968115F0EC9F0708F45CC079
:102770009093070180930601609106017091070113
:10278000812F0E94600A86E0E2E1F1E0DE0111960D
:1027900001900D928A95E1F7F70183818F778C8301
:1027A00084818D8385818E83A7014E5F5F4F24E0F6
:1027B00030E06CE070E0812F0E943A0AB601812F70
:1027C0000E944B0A26E030E0AE014F5F5F4F66E0AB
:1027D00070E0812F0E943A0A61E070E0812F0E9430
:1027E000EB1127E02A9DC0012B9D900D11249C0127
:1027F0002B5B3C4F7901F9011182108222E030E01D
:10280000AE01455F5F4F68E270E0812F0E94301398
:102810008B859C85982789279827F7019383828346
:102820001682158214826CCF80E090ECA1CFCF92FB
:10283000DF92EF92FF920F931F93CF93DF9300D01D
:1028400000D000D0CDB7DEB78C016B017A01FC015E
:10285000808D843010F40E9407128AE891E09A83F8
:102860008983F60182819381A481B5818B839C83C6
:10287000AD83BE83B701CE0101960E944113F801DA
:10288000808F8430A0F4F586E486128E118E81E06C
:1028900026960FB6F894DEBF0FBECDBFDF91CF9165
:1028A0001F910F91FF90EF90DF90CF90089580E0FF
:1028B000EFCFAF92BF92CF92DF92EF92FF920F9342
:1028C0001F93CF93DF9300D000D000D0CDB7DEB7F9
:1028D000082F6B0180E591E00E948D019E012F5F22
:1028E0003F4F7901590110E063E070E0812F0E94B1
:1028F000CE11F50181935F01882341F11F5F1430F0
:1029000099F710E0F70181917F018D31D1F0883185
:10291000C1F08A518230A8F01F5F143099F7812FDF
:1029200026960FB6F894DEBF0FBECDBFDF91CF91D4
:102930001F910F91FF90EF90DF90CF90BF90AF90DD
:10294000089560E170E0812F0E94EB11E12EF12CDF
:1029500083EE93E00197F1F7402F70E060E0812F64
:102960000E94750A4FEF62E070E0812F0E94750AA5
:10297000B601CD2889F48091060190910701019656
:102980008115F0EC9F0798F1909307018093060161
:102990006091060170910701812F0E94600A61E039
:1029A00070E0812F0E94EB1127E02E9DC0012F9D2A
:1029B000900D11249C012B5B3C4F7901F901118290
:1029C000108222E030E0AE014B5F5F4F68E270E0C2
:1029D000812F0E9430138D819E8198278927982707
:1029E000F7019383828316821582148298CF80E048
:1029F00090ECCACFCF92DF92EF92FF921F93CF93CA
:102A0000DF93EC017B016A018C85843048F40E94DD
:102A10002012882319F08C850E94FB1184E08C879A
:102A2000F70182819381A481B5810097A105B10549
:102A300051F490E080E0DF91CF911F91FF90EF90F3
:102A4000DF90CF9008958F3F9F4FAF4FBF4F89F3D7
:102A500080916103811103C084E08C87EACF70E02C
:102A600060E081E20E945914182F8C87843008F7A7
:102A700080E591E00E948D01A7014E5F5F4F24E049
:102A800030E06CE070E0812F0E943A0AB601812F9D
:102A90000E944B0A64E070E0812F0E94EB110E94BB
:102AA000AF026B017C018C850E942012873109F1F5
:102AB0008C31F9F0882309F4BCCF0E94AF02AB013E
:102AC000BC014C195D096E097F098D859E85B0E0BA
:102AD000A0E084179507A607B70738F061E070E01B
:102AE00080E090E00E947D02DECF8C850E9407127C
:102AF000B3CF81E090E09FCF0F931F93CF93DF93ED
:102B0000EC018B01888D843010F40E9407128091B3
:102B10006103811107C094E0988FDF91CF911F91DD
:102B20000F910895B80182E00E945914888F843073
:102B300030F41D870C871A8E198E81E0EECF80E06D
:102B4000ECCF7F928F929F92AF92BF92CF92DF9203
:102B5000EF92FF920F931F93CF93DF9300D0CDB7E7
:102B6000DEB7782E8B014A01590122E030E0AE0138
:102B70004F5F5F4F64E270E00E943013E980FA809B
:102B8000FE24EF24FE24E00EF11E970137704091E1
:102B90006103072D10E0433309F042C0085F1F4F67
:102BA000102F0027110F110F110FC901800F911F56
:102BB0004733C9F1A9014A0D5B1D4130584098F1D6
:102BC00060E078E06B01C21AD30AA601B4010E944A
:102BD0006909A5014C195D09B4016C0D7D1DC80181
:102BE0000E946909EA0CFB1CF982EA8222E030E0CB
:102BF000AE014F5F5F4F64E270E0872D0E943A0A9A
:102C00000F900F90DF91CF911F910F91FF90EF9058
:102C1000DF90CF90BF90AF909F908F907F9008955E
:102C2000005F1F4FBDCFA501B401DACFEF92FF9235
:102C30001F93CF93DF9300D0CDB7DEB7182F22E0DC
:102C400030E0AE014F5F5F4F60E270E00E943013F2
:102C5000E980FA80FE24EF24FE2422E030E0AE0179
:102C60004F5F5F4F60E270E0812F0E9430138981D7
:102C70009A81982789279827E816F90689F487E02A
:102C8000189FF0011124EB5BFC4FF582E482C70131
:102C90000F900F90DF91CF911F91FF90EF900895CB
:102CA0007C01DBCF1F93CF93DF93182F80E591E05A
:102CB0000E948D01812F0E941616EC0163E070E0E6
:102CC000812F0E94CE11873121F08C3111F0D0E09C
:102CD000C0E0CE01DF91CF911F910895CF93DF9394
:102CE000EC018C85843060F40E942012873111F051
:102CF0008C3131F48C850E9452168115984088F3EE
:102D0000DF91CF910895FC018485843010F40C94F8
:102D1000521690E080E008959F92AF92BF92CF92BA
:102D2000DF92EF92FF920F931F93CF93DF938C016B
:102D30005B01942EE52EFC01C688D788F08C80E5D7
:102D400091E00E948D018F2D0E941616C92DDE2D57
:102D50008C179D0708F4EC019E01A501B6018F2D8B
:102D60000E94A115F801868997898C0F9D1F978B6A
:102D7000868BCE01DF91CF911F910F91FF90EF9045
:102D8000DF90CF90BF90AF909F9008958F929F92C9
:102D9000AF92BF92CF92DF92EF92FF920F931F9369
:102DA000CF936C015B018A01FC01C485C430F0F54E
:102DB0007A014130584018F0E12C88E0F82E80E587
:102DC00091E00E948D018C2F0E9416164C0163E049
:102DD00070E08C2F0E94CE11873111F08C3149F5B3
:102DE0008E149F0460F380E591E00E948D019701AD
:102DF000A50170E060E08C2F0E94A11560E270E0F8
:102E00008C2F0E94EB1162E070E08C2F0E94CE119B
:102E100084FD17C063E070E08C2F0E94CE118111F9
:102E20000BC081E090E0F6019383828310E000E024
:102E300010C0F12CE12CD7CF80E591E00E948D01EC
:102E4000E2CF40E162E070E08C2F0E94750AEF282B
:102E500041F3C801CF911F910F91FF90EF90DF9048
:102E6000CF90BF90AF909F908F900895FF920F9357
:102E70001F93CF93DF9300D0CDB7DEB7F82E22E0BB
:102E800030E0AE014F5F5F4F66E270E00E943013AA
:102E900009811A8110270127102722E030E0AE01B6
:102EA0004F5F5F4F66E270E08F2D0E943013898183
:102EB0009A819827892798270817190749F4C80184
:102EC0000F900F90DF91CF911F910F91FF90089578
:102ED0008C01E3CF1F93CF93DF93182F87E0189FC8
:102EE000E0011124CB5BDC4F88819981009761F46C
:102EF00080E591E00E948D01812F0E9436172E817E
:102F0000821B910999838883DF91CF911F91089546
:102F1000FC018485843010F40C946A1790E080E002
:102F200008954F925F927F928F929F92AF92BF923D
:102F3000CF92DF92EF92FF920F931F93CF93DF9385
:102F400000D0CDB7DEB7782E6B014A01A82EB12C88
:102F500027E0829FC0011124FC01EB5BFC4F7F0145
:102F60000081118180E591E00E948D01081519050D
:102F700054F4872D0E943617F70126818C01021B1D
:102F80001109118300830115110529F563E070E033
:102F9000872D0E94CE11843159F0882349F001E039
:102FA00010E08C3111F410E000E011950195110949
:102FB000C8010F900F90DF91CF911F910F91FF905B
:102FC000EF90DF90CF90BF90AF909F908F907F90C9
:102FD0005F904F900895801691060CF4840187E06D
:102FE0008A9DF0018B9DF00D1124EB5BFC4FE2807C
:102FF000F380C114D10451F12701F7E05F22872D3E
:103000000E942C0A840D951D20916103273309F439
:1030100053C09801240D351D2130384008F44CC0B0
:1030200020E038E0490184189508A401B6010E9407
:1030300043112601480C591C6801C818D908872D6E
:103040000E942C0AA601B2010E944311E00EF11E5B
:1030500087E08A9DF0018B9DF00D1124EB5BFC4F06
:10306000F382E28220813181201B310B3183208366
:103070008681800F912F911D8A3F910510F4232B9B
:10308000F1F487E08A9DF0018B9DF00D1124EB5B3C
:10309000FC4F1682F982EA8222E030E0AE014F5FF7
:1030A0005F4F68E270E0872D0E943A0A60E470E0AA
:1030B000872D0E94EB117CCFA801B601C5CF868376
:1030C00077CFCF93DF93FC01218D328D2115310510
:1030D00029F48FEF9FEFDF91CF910895EC01808D60
:1030E0004217530708F0A9010E94911718161906F4
:1030F00084F7298D3A8D281B390B3A8F298FEBCF16
:103100000F931F93CF93DF931F92CDB7DEB7FC01D0
:10311000218D328D232B41F48FEF9FEF0F90DF91A4
:10312000CF911F910F9108958C0141E050E0BE01B5
:103130006F5F7F4FFC01808D0E9491171816190652
:103140005CF7F801818D928D0197928F818F898133
:1031500090E0E4CF0F931F93CF93DF93CDB7DEB70B
:1031600028970FB6F894DEBF0FBECDBF8C01D801F3
:1031700059964D915C915A974115510551F0ED9139
:10318000FC91048CF58DE02D70E060E0C80109959C
:10319000EECFF801808D0E946A17892BB1F148E0CB
:1031A00050E0BE016F5F7F4FD80158968C910E940E
:1031B000911718161906F4F4D801509684E0FE0110
:1031C000319601900D928A95E1F78D8190E0982FCC
:1031D00088272E81820F911DF801958B848B8F811A
:1031E000282F30E0322F22278885820F932F911DC0
:1031F000928F818F28960FB6F894DEBF0FBECDBF99
:10320000DF91CF911F910F91089590E080E0F2CF70
:103210004F925F926F927F928F929F92AF92BF92E6
:10322000CF92DF92EF92FF920F931F93CF93DF9392
:10323000CDB7DEB763970FB6F894DEBF0FBECDBF34
:103240007C016B013A01FB0120E090E080E06AE044
:103250003191332309F461C040ED430F4A3008F047
:103260004DC0689FA001699F500D1124CA01C097ED
:10327000830F911D37FD9A958F3F910549F340F3D8
:10328000F70142815381648175818091310490916D
:103290003204A0913304B0913404481759076A07E7
:1032A0007B0709F40DC28701085F1F4F0E94AF0220
:1032B0006F7077277C5FC8010E947C15813009F010
:1032C00004C28AE891E09A838983F701828193811D
:1032D000A481B5818B839C83AD83BE8345E350E09D
:1032E000BE016F5F7F4FC8010E94CA0A892BA9F5F2
:1032F000D12CC12CC8010E94131217C03E3209F014
:10330000BFCF233009F4BCCFD301A20FB11D129659
:103310008C932F5F90E080E09BCF233009F0B0CFFB
:10332000F3018583CC24C394D12CC60163960FB6D8
:10333000F894DEBF0FBECDBFDF91CF911F910F91EB
:10334000FF90EF90DF90CF90BF90AF909F908F90C5
:103350007F906F905F904F9008950E94AF02F701A9
:103360007783668342E050E0B7016A5F7F4FC80110
:103370000E948C1681E090E09A83898342E050E0BD
:10338000BE016F5F7F4FC8010E948C1680E091E004
:103390009A83898342E050E0BE016F5F7F4FC8018E
:1033A0000E948C161A82198242E050E0BE016F5FC3
:1033B0007F4FC8010E948C1642E050E0BE016F5F53
:1033C0007F4FC8010E948C1642E050E0BE016F5F43
:1033D0007F4FC8010E948C165601F6018081882318
:1033E00001F16501F60181912F01882311F08E32E0
:1033F000B1F446018A189B081814190474F48D86D8
:1034000041E050E0BE01635F7F4FC8010E948C160F
:10341000A401B501C8010E948C165201DECF6201E1
:10342000E1CF1D8641E050E0BE01635F7F4FC801E0
:103430000E948C16C12CDD24D394DA82C98242E02A
:1034400050E0BE016F5F7F4FC8010E948C16DA8288
:10345000C98242E050E0BE016F5F7F4FC8010E9409
:103460008C16C8010E948712892B09F441CFF3E022
:10347000AF2EB12C230122E0420E511CD4C0F70123
:103480004281538164817581808D918DA28DB38D30
:10349000481759076A077B0709F008C1848D958D85
:1034A000C59709F003C181A192A15DEFC52EDD246E
:1034B000DA940C970CF4ADC04CE050E0BE016F5FA5
:1034C0007F4FC8010E9461188B819C8198278927B2
:1034D00098279A8B898BF7014681578129813A81F8
:1034E0004217530709F0E7C097FFE5C08F7092704D
:1034F0003BEFC32EDD24DA94892B09F08AC06F805C
:1035000078847624672476242AEFC22EDD24DA9488
:103510006114710409F47DC0D12CC12C8D819E8170
:10352000982789279827C816D906F8F441E050E073
:10353000BE01635F7F4FC8010E9461184D8544231F
:1035400031F050E070E060E0C8010E9461188D85A4
:103550008111ECCF44E050E070E060E0C8010E94CF
:103560006118FFEFCF1ADF0AD9CF912C812C41E0EF
:1035700050E0BE016D5E7F4FC8010E9461184B890B
:10358000842F807C09F06CC0442331F050E070E05F
:1035900060E0C8010E9461188B898111E8CF42E088
:1035A00050E0BE01615F7F4FC8010E94611842E098
:1035B00050E0BE01635F7F4FC8010E94611844E084
:1035C00050E070E060E0C8010E94611842E050E005
:1035D000BE016F5E7F4FC8010E9461188F85988978
:1035E00049895A898115914009F043C0CD84DE8410
:1035F000DC24CD24DC2481E0C816D104D1F54115AA
:10360000544009F04AC044E050E0B201C8010E94B1
:10361000611821E0A21AB10809F46CCEFFEFCF16B1
:10362000DF0609F067CE0E94AF023B014C01C801E2
:103630000E94AA18181619060CF421CF0E94AF0296
:1036400066197709880999096938734181059105D7
:1036500048F562E370E080E090E00E947D02E7CFF1
:1036600041E050E070E060E0C8010E9461181B8AF0
:1036700093CF54274527542770E060E0C8010E948B
:103680006118FFEF8F1A9F0A6814790409F06FCF51
:1036900096EFC92EDD24DA94BCCFE7EFCE2EDD24E1
:1036A000DA94B7CFCC24CA94DC2CB3CF6EEFC62EFD
:1036B000DD24DA94AECF4CEFC42EDD24DA94A9CF0A
:1036C0008EEFC82EDD24DA9430CED12CC12C2DCE35
:1036D000CF92DF92EF92FF920F931F93CF93DF93DE
:1036E000CDB7DEB7AF970FB6F894DEBF0FBECDBF34
:1036F0007C016A010AE811E01A8309831C861B8693
:1037000088EE93E0A0E0B0E08D879E87AF87B88B0E
:103710008CE191E09A878987188F0F8B198E1A8E0A
:103720001B8E1C8E84E089A31BA70AA71CA61DA6BE
:103730001EA61FA68091250490912604A09127041F
:10374000B09128048EA39FA3A8A7B9A78B839C83BD
:10375000AD83BE8318861F82AE01465D5F4FCE01EA
:1037600001960E94081981309105B1F4D701ED91BD
:10377000FC910488F589E02D1DA30CA38CA59DA5C3
:10378000AEA5BFA58EA39FA3A8A7B9A7A601BE01FA
:103790006C5D7F4FC7010995AF960FB6F894DEBFF9
:1037A0000FBECDBFDF91CF911F910F91FF90EF9092
:1037B000DF90CF900895CF92DF92EF92FF920F9318
:1037C0001F93CF93DF93CDB7DEB7AF970FB6F894C3
:1037D000DEBF0FBECDBF8C016B017A018AE891E09C
:1037E0009A8389831B821C821D821E821C861B86F3
:1037F00048EE53E060E070E04D875E876F87788B1E
:103800002CE131E03A872987988F8F8B198E1A8E99
:103810001B8E1C8E24E029A39BA78AA71CA61DA68D
:103820001EA61FA6D8011C968C91843060F40E94BD
:103830002012882321F0F80184850E94FB1184E086
:10384000D8011C968C938091250490912604A09118
:103850002704B09128048EA39FA3A8A7B9A78B83A0
:103860009C83AD83BE8318861F82AE01465D5F4F89
:10387000B601CE0101960E9408190097C1F0D80147
:10388000ED91FC910684F785E02D8AE891E09DA3F7
:103890008CA38CA59DA5AEA5BFA58EA39FA3A8A70D
:1038A000B9A7A701BE016C5D7F4FC8010995AF960E
:1038B0000FB6F894DEBF0FBECDBFDF91CF911F9141
:1038C0000F91FF90EF90DF90CF900895CF93DF930B
:1038D0001F92CDB7DEB741E050E0BE016F5F7F4F72
:1038E000FC0184850E9491171816190634F4898109
:1038F00090E00F90DF91CF9108958FEF9FEFF9CF78
:10390000FC018485843010F40C94911790E080E0E1
:1039100008950F931F93CF93DF9300D0CDB7DEB7F9
:10392000FC0124852430E0F48C0180E591E00E94C4
:103930008D0122E030E0AE014F5F5F4F60E170E04B
:10394000F80184850E94301389819A8198278927FC
:1039500098270F900F90DF91CF911F910F910895AD
:1039600090E080E0F6CFEF92FF920F931F93CF93FA
:10397000DF9300D000D0CDB7DEB78C017B01FB0117
:1039800084858430A8F08AE891E0F80191838083EF
:103990001282138214821582C8010F900F900F902B
:1039A0000F90DF91CF911F910F91FF90EF900895AD
:1039B00080E591E00E948D0124E030E0AE014F5F90
:1039C0005F4F6CE070E0F70184850E943013BE0108
:1039D0006F5F7F4FC8010E94070CDECF0F931F93CC
:1039E000CF93DF9300D0CDB7DEB7FC012485243020
:1039F000E0F48C0180E591E00E948D0122E030E04E
:103A0000AE014F5F5F4F64E070E0F80184850E9473
:103A1000301389819A819827892798270F900F90D2
:103A2000DF91CF911F910F91089590E080E0F6CF44
:103A30007F928F929F92AF92BF92CF92DF92EF923E
:103A4000FF920F931F93CF93DF93CDB7DEB7A69767
:103A50000FB6F894DEBF0FBECDBF8C01762E942E2C
:103A6000852E20E2A22ECE0101967C01DC01EA2DFA
:103A70001D92EA95E9F76801F3E4CF0ED11C8AE8BC
:103A800091E09AA389A38FEF8BA38CA38DA38EA320
:103A900043E450E0BE016F5D7F4FC6010E94CA0A39
:103AA000019609F4BFC081E089838A8386E0B82E3D
:103AB000BB821C82D80114966D917D918D919C9151
:103AC00017970E94D02A6D837E838F83988789867B
:103AD0009A8680E890E09C878B874CE150E0B701A4
:103AE000C6010E948C16FE0137968AE1DF011D9205
:103AF0008A95E9F74801B8E08B0E911CF401D701D3
:103B000001900D92BA94E1F740E150E0B701C6018F
:103B10000E948C16F7011192AA94E9F796E0A92E5B
:103B2000B12C40E250E0B701C6010E948C16F1E0D2
:103B3000AF1AB108B1F783E6898392E89A8393E5D7
:103B40009B838C8385E38D8381E08E837F829DE3DD
:103B5000988797E099878A8786E0F401DE011B96B3
:103B600001900D928A95E1F78CE0898B8A8B64EF46
:103B700071E0CE0143960E94F62CD8011B966C9101
:103B8000CE0149960E949001F8016485CE014B96C2
:103B90000E949001D8011D966C91CE014D960E9415
:103BA00090014EE150E0B701C6010E948C16B3E0CF
:103BB0007B121EC082E3898384E08A83F8019685A4
:103BC0009B8397859C8390899D8391899E8396E3AF
:103BD0009F838887828D8987838D8A87848D8B8751
:103BE000858D8C874CE050E0B701C6010E948C1691
:103BF00087E3898386E08A8391E09B8393E09C83BB
:103C00008D838FE08E838AE38F838BE388878FEFAA
:103C1000898749E050E0B701C6010E948C16C601B1
:103C20000E948712A6960FB6F894DEBF0FBECDBFD6
:103C3000DF91CF911F910F91FF90EF90DF90CF9088
:103C4000BF90AF909F908F907F9008950F931F9398
:103C5000CF93DF93EC0188819981009759F02A81F5
:103C60003B812617370730F081E0DF91CF911F911C
:103C70000F9108958B016F5F7F4F0E94022C009778
:103C800059F0998388831B830A832C813D81232BE0
:103C900059F7FC011082E8CF80E0E7CFEF92FF9266
:103CA0000F931F93CF93DF93EC01FB01E080F18032
:103CB000E114F10411F10481158101151105A9F038
:103CC0008C819D81080F191FB801CE010E94261E0C
:103CD000882399F0288139818C819D81B701820FD9
:103CE000931F0E94F62C1D830C83CE01DF91CF9190
:103CF0001F910F91FF90EF900895CE010E94271120
:103D0000F4CFEF92FF920F931F93CF93DF93EC01C9
:103D1000198218821B821A821D821C82611571050C
:103D200021F18B01FB0101900020E9F731977F0120
:103D3000E61AF70AB7010E94261E811109C0CE01BA
:103D4000DF91CF911F910F91FF90EF900C9427116D
:103D5000FD82EC82B80188819981DF91CF911F911A
:103D60000F91FF90EF900C94F62CDF91CF911F9163
:103D70000F91FF90EF9008954F925F926F927F9214
:103D80008F929F92AF92BF92CF92DF92EF92FF926B
:103D90000F931F93CF93DF93CDB7DEB769970FB61D
:103DA000F894DEBF0FBECDBF4B0129013A01AB8AAB
:103DB000BC8ACD8ADE8AEF8AF88E098FCDB6DEB650
:103DC0000E891F89A88CB98CC90101962DB73EB701
:103DD000281B390B0FB6F8943EBF0FBE2DBF8DB711
:103DE0009EB701967C01A201B3010E94E62C4E0C05
:103DF0005F1CD2011C920115110521F0F801EA0D9A
:103E0000FB1D1082D4011496ED91FC91159730970B
:103E100039F19501A801B7018D919C9109950FB6D3
:103E2000F894DEBE0FBECDBE0FB6F894DEBE0FBE58
:103E3000CDBE69960FB6F894DEBF0FBECDBFDF9141
:103E4000CF911F910F91FF90EF90DF90CF90BF9097
:103E5000AF909F908F907F906F905F904F9008955C
:103E6000F40182819381892BD1F2B701CE010796AB
:103E70000E94811E6EE871E0CE010D960E94811EA7
:103E80000115110509F1B801CE0101960E94811EAC
:103E90008D859E85009769F169817A81611571052B
:103EA00031F14F8558892D813E8142175307F8F033
:103EB0000E94F62C8D819E819A8B898B1E821D8299
:103EC000CE0101960E943911D4011296ED91FC9118
:103ED000BE01635F7F4FCE0107960995CE010D9617
:103EE0000E943911CE0107960E94391198CF0E9485
:103EF000792B89819A819E878D878B819C81988B74
:103F00008F878D819E819A8B898B1A8219821C8260
:103F10001B82D4CFCF92DF92EF92FF920F931F9329
:103F2000CF93DF9300D000D000D0CDB7DEB78C01A7
:103F30006B016BEF71E0CE0101960E94811EB8010A
:103F4000CE0101960E944E1E8C01FC01E480F5809A
:103F5000F3E0EF0EF11CB7010E94261E8823A1F1A9
:103F6000F801208131818481958166E072E0820FC1
:103F7000931F0E94F62CF801F582E482B601C80175
:103F80000E944E1EFC01448155816081718182E650
:103F900093E00E94B4036CE871E082E693E00E9433
:103FA0003F0BCE0101960E94391126960FB6F89468
:103FB000DEBF0FBECDBFDF91CF911F910F91FF905C
:103FC000EF90DF90CF900895C8010E942711D6CFBF
:103FD0003F924F925F926F927F928F929F92AF9299
:103FE000BF92CF92DF92EF92FF920F931F93CF93E6
:103FF000DF93CDB7DEB7EA970FB6F894DEBF0FBEFA
:10400000CDBF7C012A013B0169010E94AF024B0137
:104010005C0187010D5B1F4FC8010E94AA1818168A
:1040200019069CF00E94AF02681979098A099B0958
:10403000461657066806790608F466C162E370E022
:1040400080E090E00E947D02E7CF42E250E0BE01B6
:104050006F5F7F4FC8010E94611889818230D1F063
:10406000312C832DEA960FB6F894DEBF0FBECDBF7C
:10407000DF91CF911F910F91FF90EF90DF90CF9044
:10408000BF90AF909F908F907F906F905F904F9078
:104090003F900895F801848995898334910501F74B
:1040A0006D817E818F8198850E94D02A4B015C01B1
:1040B000F60180829182A282B38246E050E0B7018D
:1040C000685F7F4FCE014D960E94D92C892B41F617
:1040D000F70180819181A281B38188169906AA0691
:1040E000BB0608F4BDCF84819581A681B781881570
:1040F0009905AA05BB0508F4B3CF89899A89AB89CC
:10410000BC8986879787A08BB18B4EEC50E070E01E
:1041100060E0C8010E946118312CC701829698ABFB
:104120008FA7F701B696FAABE9AB08969CAB8BABC1
:1041300067019AE1C90ED11CBD96FEABEDABC7017C
:10414000429698AF8FABFD97FAAFE9AF4701FEE11A
:104150008F0E911CF801818D928D181619060CF0A6
:1041600080CFC8010E9480188333910509F4B2C042
:1041700014F58130910509F464C044F4892B51F39E
:10418000C8010E948018AC01552775C08330910585
:1041900009F462C00697A1F7C8010E948018B82EE2
:1041A00044E050E0B401C8010E946118EB2DE450D6
:1041B000FF0BAF0160C08A33910509F45FC084F53D
:1041C00085339105B1F1C697D9F6C8010E948018D0
:1041D0005C01B601CE0189960E94070C8BA59CA5B7
:1041E000ADA5BEA5892B8A2B8B2BB1F0EDA9FEA91D
:1041F0004080518062807380B601CE0183960E9418
:10420000070C8DA19EA1AFA1B8A5A501481659061E
:104210006A067B0609F0B8CF44E050E0B60118C04A
:104220008B33910509F440C08F3F910509F492CF7B
:10423000A7CFC8010E948018C8010E948018382E9C
:1042400089CFC8010E94801844E050E06FA978AD82
:10425000C8010E9461187ECFC8010E948018B82E44
:1042600044E050E069AD7AADC8010E9461188B2D21
:104270008450990BAC0170E060E0EACFC8010E9465
:10428000801844E050E069A97AA9C8010E94611829
:10429000F70166A177A180A591A50E94D02A66A307
:1042A00077A380A791A756CFC8010E94801844E049
:1042B00050E06BA97CA9C8010E946118F70162A5B2
:1042C00073A584A595A50E94D02A62A773A784A789
:1042D00095A740CFC8010E94801844E050E06FA528
:1042E00078A9C8010E946118F70162A173A184A195
:1042F00095A10E94D02A62A373A384A395A366A765
:1043000077A780AB91AB26CF33243A94AACE1F92E5
:104310000F920FB60F9211242F933F938F939F9379
:10432000AF93BF9380913D0390913E03A0913F03D3
:10433000B091400330913C0323E0230F2D3758F513
:104340000196A11DB11D20933C0380933D039093E2
:104350003E03A0933F03B0934003809141039091AB
:104360004203A0914303B09144030196A11DB11DE6
:104370008093410390934203A0934303B09344037B
:10438000BF91AF919F918F913F912F910F900FBE51
:104390000F901F90189526E8230F0296A11DB11DBE
:1043A000D2CF1F920F920FB60F9211242F933F93EB
:1043B0004F935F936F937F938F939F93AF93BF932D
:1043C000EF93FF9382E693E00E943204FF91EF9116
:1043D000BF91AF919F918F917F916F915F914F911D
:1043E0003F912F910F900FBE0F901F9018951F9225
:1043F0000F920FB60F9211242F938F939F93EF93E9
:10440000FF93E0917203F09173038081E091780350
:10441000F091790382FD1BC0908180917B038F5FB7
:104420008F7320917C03821741F0E0917B03F0E0D1
:10443000EE59FC4F958F80937B03FF91EF919F91F5
:104440008F912F910F900FBE0F901F901895808124
:10445000F4CFCF93DF93E2E6F3E01382128248EECB
:1044600053E060E070E0448355836683778386E49D
:1044700091E09183808385EC90E09587848784EC3C
:1044800090E09787868780EC90E0918B808B81EC21
:1044900090E0938B828B82EC90E0958B848B86EC02
:1044A00090E0978B868B118E128E138E148EEFEF09
:1044B000F3E08AE891E09183808312821382148270
:1044C0001582E5E0F4E091838083128213821482E6
:1044D0001582EBE0F4E091838083128213821482D0
:1044E0001582E1E1F4E091838083128213821482C9
:1044F0001582E7E1F4E091838083128213821482B3
:104500001582EDE1F4E0918380831282138214829C
:104510001582E9E2F4E0918380831282138214828F
:104520001582E3E2F4E09183808312821382148285
:104530001582EFE2F4E09183808312821382148269
:104540001582E5E3F4E09183808312821382148262
:104550001582E5EBF4E0918380831282138214824A
:104560001582E6EAF4E0138212824483558366835F
:10457000778328E531E03183208324E0248728EE07
:1045800033E036872587CBE3D4E02AE030E0398773
:10459000288721E02A874B875C876D877E871F8667
:1045A000198A188A1B8A1A8A9D8B8C8B1E8A1F8AED
:1045B000188E198E1B8E1A8E1D8E1C8E1F8E1E8EAF
:1045C00019A218A21BA21AA21DA21CA21EA21FA2FF
:1045D00018A619A61AA61BA61CA61DA61FA61EA6CF
:1045E00018AA19AA1AAA1BAA1CAA1DAA1EAA1FAA9F
:1045F00019AE18AEE5E7F4E084E2DF011D928A957A
:10460000E9F71092990410929B0410929A04109268
:104610009D0410929C0410929F0410929E0410928C
:10462000A0041092A1041092A2041092A30410926C
:10463000A5041092A40480E890E0998388839B836A
:104640008A8381E890E00E94DD2A9D838C8380E844
:1046500090E00E94DD2A9F838E83DF91CF910895A1
:10466000CF93DF93CDB7DEB72A970FB6F894DEBFAE
:104670000FBECDBF789484B5826084BD84B581605F
:1046800084BD85B5826085BD85B5816085BD80911D
:104690006E00816080936E00109281008091810095
:1046A000826080938100809181008160809381008D
:1046B000809180008160809380008091B10084604F
:1046C0008093B1008091B00081608093B0008091B0
:1046D0007A00846080937A0080917A00826080936F
:1046E0007A0080917A00816080937A0080917A00CC
:1046F000806880937A001092C100E0917203F0917B
:10470000730382E08083E0916E03F0916F03108267
:10471000E0917003F09171038FEC808310927A0323
:10472000E0917603F091770386E08083E091740353
:10473000F0917503808180618083E0917403F09132
:104740007503808188608083E0917403F091750324
:10475000808180688083E0917403F091750380818B
:104760008F7D808360E083E00E94270260E083E128
:104770000E94270260E08EE00E94270261E088E04C
:104780000E94270261E08CE00E94270261E08DE038
:104790000E9427028091300381112AC010921803D1
:1047A0001092170388EE93E0A0E0B0E08093190325
:1047B00090931A03A0931B03B0931C038CE191E028
:1047C00090931603809315038AE891E09093240355
:1047D000809323031092250310922603109227033F
:1047E0001092280384E080932D0381E080933003AE
:1047F00082ED92E09093D1028093D0028091CF021B
:104800008111ADC060E372E080E090E00E947D0223
:10481000DFB6F89400E910E0E4EAEE2EE0E0FE2EC8
:104820008091CD02811125C0F8018491F701949106
:10483000E82FF0E0EE0FFF1FE859FF4FA591B4916C
:104840008C91982321F461E08AE00E94F90161E0F3
:104850008AE00E9427028CB580618CBD8CB5806493
:104860008CBD61E08DE00E94270261E08BE00E9438
:1048700027028091CD028F5F8093CD02DFBEF801C9
:104880000491E02FF0E0EE0FFF1FEE58FF4F8591EF
:1048900094919093CC028093CB02F701E490E09244
:1048A000CA0261E08AE00E9427020E944D0980E569
:1048B00091E00E948D0184E38093610380E80E946F
:1048C000190A0E94CB12882309F484C188E00E944F
:1048D000190A0E94B812883009F07CC180E10E9458
:1048E000190A0E94B812803109F074C180E00E9458
:1048F000190A0E94B812182F81116CC141E050E0D2
:10490000BE016F5F7F4F8FE190E00E94431189816C
:10491000833009F05FC180E48093CE0242E06EE113
:1049200070E0812F0E94750A42E06FE170E0812FF4
:104930000E94750A1F5F143089F740E06EE170E055
:10494000812F0E94750A40E06FE170E0812F0E9484
:10495000750A1F5F183089F781E08093CF0280E5E8
:1049600091E00E948D0146E050E060E071E089E056
:1049700090E00E9469098AE891E09A8389831B820A
:104980001C821D821E8244E050E0BE016D5F7F4F9D
:104990008FE090E00E9469090091D0021091D1024D
:1049A000D80192961D921D921D921C929597F80126
:1049B00016A217A210A611A69A961D921D921D92DC
:1049C0001C929D9780E69AEEA0E0B0E086AB97AB94
:1049D000A0AFB1AF80EA9FE0A0E0B0E082AF93AFBC
:1049E000A4AFB5AF3E9684E1DF011D928A95E9F749
:1049F00086E0E0E0F1E0D801189601900D928A95EA
:104A0000E1F7F801EE5BFF4FFA87E98710820E9419
:104A1000DE292FEC37E040E050E00E94362ADC012E
:104A2000CB010196A11DB11DF80184839583A68356
:104A3000B78380839183A283B3835801F3E4AF0EDD
:104A4000B11CC5010E94131264E470E0C5010E940C
:104A50007C15882309F427C10E94AF022B013C0179
:104A600048EEC42E43E0D42EE12CF12C52E0252E4A
:104A7000912C812CA985BA858C918330B9F1811153
:104A800025C3F80184819581A681B7810196A11D76
:104A9000B11D84839583A683B7830E94AF026419F6
:104AA000750986099709A70196010E949F2AA90105
:104AB00061E0C8010E94181D81E0A985BA858C9328
:104AC000F1E08F169104B1F20E94AF0264197509EA
:104AD00086099709D801D6962D913D914D915C910B
:104AE000D997261737074807590710F6C5010E94BE
:104AF0001312F80184819581A681B7810196A11DC9
:104B0000B11D84839583A683B7830E94AF02F80109
:104B1000FE9660837183828393838A94892809F047
:104B2000C2C080E591E00E948D010091D0021091F9
:104B3000D102B801625F7F4FCE0101960E94070C3F
:104B400044E050E0BE016D5F7F4F8FE090E00E9437
:104B50006909B8016A5E7F4FCE0101960E94070C79
:104B600044E050E0BE016D5F7F4F81E090E00E9425
:104B70006909B8016E5E7F4FCE0101960E94070C55
:104B800044E050E0BE016D5F7F4F85E090E00E9401
:104B90006909B801625E7F4FCE0101960E94070C41
:104BA0008B819C81AD81BE818093250490932604E6
:104BB000A0932704B09328040E9458027F73809129
:104BC0000601909107016827792770930701609388
:104BD000060169C087E38093610380E80E94190A97
:104BE0000E94CB12882329F188E00E94190A0E94B2
:104BF000B8128830F1F480E10E94190A0E94B812BC
:104C0000182F8031B1F480E00E94190A0E94B81276
:104C100081110FC041E050E0BE016F5F7F4F89E31B
:104C200090E00E9443118981843019F41093CE02E0
:104C300093CE83E38093610380E80E94190A0E9467
:104C4000CB12882371F180E10E94190A0E94B812E8
:104C5000803139F582E10E94190A0E94B81282312E
:104C600001F580E00E94190A0E94B812811119C052
:104C700084E08093CE0215E5188741E050E0BE0144
:104C8000685F7F4F8BE190E00E9469091F8341E0DC
:104C900050E0BE01695F7F4F8AE190E00E946909A0
:104CA0005BCE1092610386EA94E090934C0480936B
:104CB0004B0480913B0490913C0420913F0430913F
:104CC000400440913D0450913E0460914104709134
:104CD0004204E1E0F0E0F0937604E0937504109272
:104CE0007704109278041092790410927A0410924A
:104CF0007B04709381046093800450937D044093FF
:104D00007C04309383042093820490937F048093E7
:104D10007E041092850410928404109287041092ED
:104D20008604109289041092880410928B041092C9
:104D30008A0410928D0410928C04109296041092A2
:104D400098041092970481E694E090938F048093E6
:104D50008E048BE694E090939104809390048BEB07
:104D600092E0909393048093920481ED92E090936B
:104D700095048093940440E050E0BA0181E694E009
:104D80000E94BB02E0919204F091930440E050E055
:104D9000BA01809190049091910409958FE594E077
:104DA00090938904809388048DE093E090938B0422
:104DB00080938A048AE993E090938D0480938C0415
:104DC00089E594E090938704809386048CEB9EE1C0
:104DD000909385048093840480914D0490914E04B7
:104DE000009711F00E94792B8AE092E00E94BF2C7C
:104DF00090934E0480934D0483EB92E2909356047B
:104E0000809355048BE394E090935A048093590463
:104E10008AE89FE190935C0480935B0410925E04A7
:104E200010925D040E94120D80EC782E90E0E92E25
:104E300090E0F92E23EFC22EDD24DA9466246394E9
:104E40000E947901882309F490C080914B049091CD
:104E50004C04DC01ED91FC910084F185E02D099575
:104E60008C01181619060CF5409146045091470420
:104E70006091480470914904E0919204F091930488
:104E8000809190049091910409951A82198250E0C2
:104E900040E0B801CE0101960E949206009709F009
:104EA00004C210929F0410929E04409146045091B7
:104EB00047046091480470914904E0919204F09194
:104EC00093048091900490919104099580917704C6
:104ED00090917804A0917904B0917A04892B8A2B5F
:104EE0008B2B09F43EC0E0919404F09195048091DD
:104EF0008E0490918F040995161617061806190648
:104F000084F180917B048111ACC160917C0470912B
:104F10007D0400918004109181041A830983600F3D
:104F2000711F6017710709F4BEC1F8017082898191
:104F30009A8101969A83898320E030E0A901CE010D
:104F400001960E94C104009709F0AFC189819A813E
:104F5000801B910B0E94E200009709F0A6C16092AD
:104F60007B0410929F0410929E040E94790181118B
:104F700002C00E94120D83E10E94D0014C0183E027
:104F80000E94D0015C018EE00E94D0018C018A94C5
:104F9000892809F06DC18EE392E00E94E40B61E084
:104FA00088E00E94F9010E94AF02209138033091FD
:104FB000390340913A0350913B03621B730B840BFE
:104FC000950B693E73408105910580F00E94AF0208
:104FD000609338037093390380933A0390933B03B3
:104FE0006EE372E08EE492E00E944F0CAA94AB282C
:104FF00009F047C18EE692E00E94E40B61E08CE08C
:105000000E94F9010E94AF0280903803909039030A
:10501000A0903A03B0903B03681979098A099B096B
:10502000693E73408105910580F00E94AF02609354
:1050300038037093390380933A0390933B036EE6F1
:1050400072E08EE792E00E944F0C0130110509F0EA
:1050500021C180EA92E00E94E40B61E08DE00E94B1
:10506000F9010E94AF020091380310913903209199
:105070003A0330913B03601B710B820B930B693E2B
:1050800073408105910580F00E94AF026093380360
:105090007093390380933A0390933B0360EA72E084
:1050A0008DEA92E00E944F0C64EF71E080E090E0A6
:1050B0000E947D02E114F10409F4C2CE0E941E0494
:1050C000882309F4BDCE0E940000BACE8430F9F4E2
:1050D000F80184819581A681B7810196A11DB11D3A
:1050E00084839583A683B7830E94AF0264197509F0
:1050F00086099709A70196010E949F2AA90163E0EA
:10510000C8010E94181DA985BA852C92D9CC81307E
:1051100059F5F80142AD53AD64AD75AD9E012F5FF9
:105120003F4FC8010E94E81F382EF2E08F1392C053
:1051300089819A81AB81BC81F80184839583A683A0
:10514000B7830E94AF026419750986099709A70100
:1051500096010E949F2AA90163E0C8010E94181DC0
:10516000A985BA853C92ACCC823009F0A9CCF80173
:1051700042AD53AD64AD75AD9E012F5F3F4FC80189
:105180000E94E81F382EF5E08F135DC0E3E0A9858B
:10519000BA85EC93F80182A193A1A4A1B5A1892BB2
:1051A0008A2B8B2B41F484E893E0A0E0B0E082A34B
:1051B00093A3A4A3B5A3F80186A197A1A0A5B1A527
:1051C000892B8A2B8B2B61F482A193A1A4A1B5A179
:1051D000B695A7959795879586A397A3A0A7B1A7FE
:1051E000F80182A593A5A4A5B5A5892B8A2B8B2BA5
:1051F000A9F482A193A1A4A1B5A1AC01BD0123E0B2
:1052000076956795579547952A95D1F7841B950B09
:10521000A60BB70B82A793A7A4A7B5A7F80186A1F1
:1052200097A1A0A5B1A586A797A7A0ABB1AB82A572
:1052300093A5A4A5B5A582AB93ABA4ABB5AB8824CD
:105240008394912C3DCCF6E08F1304C0A985BA85D8
:105250001C9236CCBFEF3B1233CCE985FA85108225
:105260002FCCD0929F04C0929E040E946C017DCEF0
:105270008CE592E00E94E40B60E088E00E94F90176
:10528000B5CE8DE892E00E94E40B60E08CE00E94D5
:10529000F901DBCE8AEB92E00E94E40B60E08DE046
:1052A0000E94F90101CF8FEF9FEF90939F048093AD
:1052B0009E04DBCFE0915704F09158043097F1F051
:1052C00087819085892B21F0818592850E94792B99
:1052D000E0915704F091580480819181892B21F04D
:1052E000828193810E94792B809157049091580478
:1052F0000E94792B109258041092570480914D040B
:1053000090914E04009711F00E94792B80913F04F8
:10531000909140040E94792B809141049091420425
:105320000C94792B8F929F92AF92BF92CF92DF9283
:10533000EF92FF92CF93DF93EC01688179818A81AC
:105340009B81611571058105910521F464E279ED78
:105350008BE597E02DE133EF41E050E00E94362AE3
:1053600049015A019B01AC01A7EAB1E40E94552A08
:105370006B017C01ACEEB4EFA50194010E94632A9D
:10538000C60ED71EE81EF91EF7FE06C081E0C81A39
:10539000D108E10880E8F80AC882D982EA82FB8253
:1053A000C701B6019F77DF91CF91FF90EF90DF901B
:1053B000CF90BF90AF909F908F9008958F929F92C3
:1053C000AF92BF92CF92DF92EF92FF92609108016D
:1053D0007091090180910A0190910B01611571058D
:1053E0008105910521F464E279ED8BE597E02DE1EB
:1053F00033EF41E050E00E94362A49015A019B01F7
:10540000AC01A7EAB1E40E94552A6B017C01ACEE25
:10541000B4EFA50194010E94632AC60ED71EE81EB0
:10542000F91EF7FE06C081E0C81AD108E10880E83D
:10543000F80AC0920801D0920901E0920A01F092A4
:105440000B01C701B6019F77FF90EF90DF90CF90DF
:10545000BF90AF909F908F900895609308017093D4
:10546000090180930A0190930B010895052E97FB83
:105470001EF400940E944D2A57FD07D00E949F2AD7
:1054800007FC03D04EF40C944D2A5095409530956E
:1054900021953F4F4F4F5F4F0895909580957095A0
:1054A00061957F4F8F4F9F4F08950E94C12AA59FFE
:1054B000900DB49F900DA49F800D911D112408950F
:1054C000B7FF0C94552A0E94552A821B930B08950E
:1054D0002F923F924F925F926F927F928F929F9204
:1054E000AF92BF92CF92DF92EF92FF920F931F93F2
:1054F000CF93DF93CDB7DEB7CA1BDB0B0FB6F894A3
:10550000DEBF0FBECDBF09942A88398848885F84E2
:105510006E847D848C849B84AA84B984C884DF8053
:10552000EE80FD800C811B81AA81B981CE0FD11D37
:105530000FB6F894DEBF0FBECDBFED010895A1E216
:105540001A2EAA1BBB1BFD010DC0AA1FBB1FEE1FFD
:10555000FF1FA217B307E407F50720F0A21BB30B48
:10556000E40BF50B661F771F881F991F1A9469F7C4
:1055700060957095809590959B01AC01BD01CF0120
:105580000895A29FB001B39FC001A39F700D811D1C
:105590001124911DB29F700D811D1124911D08953C
:1055A0006927962769277827872778270895EE0F98
:1055B000FF1F0590F491E02D09940F931F93CF9353
:1055C000DF938230910510F482E090E0E091BD0419
:1055D000F091BE0430E020E0B0E0A0E0309799F414
:1055E0002115310509F44AC0281B390B2430310537
:1055F000D8F58A819B816115710589F1FB0193833F
:105600008283FE0111C040815181028113814817BC
:105610005907E0F04817590799F4109761F012966E
:105620000C93129713961C933296CF01DF91CF9172
:105630001F910F9108950093BD041093BE04F4CF01
:105640002115310551F04217530738F0A901DB014C
:105650009A01BD01DF01F801C1CFEF01F9CF9093AD
:10566000BE048093BD04CDCFFE01E20FF31F8193F2
:1056700091932250310939832883D7CF2091BB04DD
:105680003091BC04232B41F420910E0130910F0185
:105690003093BC042093BB0420910C0130910D0188
:1056A0002115310541F42DB73EB7409110015091BD
:1056B0001101241B350BE091BB04F091BC04E217EF
:1056C000F307A0F42E1B3F0B2817390778F0AC0125
:1056D0004E5F5F4F2417350748F04E0F5F1F509302
:1056E000BC044093BB04819391939FCFF0E0E0E032
:1056F0009CCFCF93DF930097E9F0FC0132971382A0
:105700001282A091BD04B091BE04ED0130E020E012
:105710001097A1F420813181820F931F2091BB0447
:105720003091BC042817390709F061C0F093BC041C
:10573000E093BB04DF91CF910895EA01CE17DF0714
:10574000E8F54A815B819E0141155105B1F7E901F8
:10575000FB83EA8349915991C40FD51FEC17FD07CC
:1057600061F4808191810296840F951FE9019983EC
:105770008883828193819B838A83F0E0E0E01296A4
:105780008D919C9113970097B9F52D913C911197AC
:10579000CD010296820F931F2091BB043091BC046F
:1057A0002817390739F6309751F51092BE04109238
:1057B000BD04B093BC04A093BB04BCCFD383C2830D
:1057C00040815181840F951FC817D90761F44E5F3E
:1057D0005F4F88819981480F591F518340838A8187
:1057E0009B81938382832115310509F0B0CFF0931B
:1057F000BE04E093BD049ECFFD01DC01C0CF138247
:105800001282D7CFB0E0A0E0E8E0FCE20C946A2A74
:105810008C01009751F4CB010E94DD2A8C01C80154
:10582000CDB7DEB7E0E10C94862AFC01E60FF71F46
:105830009C0122503109E217F30708F49DC0D901F9
:10584000CD91DC911197C617D70798F0C530D105D7
:1058500030F3CE0104978617970708F3C61BD70BC2
:105860002297C193D1936D937C93CF010E94792BA2
:10587000D6CF5B01AC1ABD0A4C018C0E9D1EA091C7
:10588000BD04B091BE04512C412CF12CE12C109799
:1058900031F58091BB049091BC048815990509F0FD
:1058A0005CC04616570608F058C080910C019091D4
:1058B0000D01009741F48DB79EB7409110015091B2
:1058C0001101841B950BE817F90708F055C0F093F8
:1058D000BC04E093BB04F90171836083A0CF8D9178
:1058E0009C91119712966C90129713967C90139737
:1058F000A815B90559F56C0142E0C40ED11CCA14B3
:10590000DB0420F1AC014A195B09DA011296159704
:1059100080F06282738251834083D9016D937C93BE
:10592000E114F10471F0D7011396FC93EE931297F2
:1059300076CF22968C0F9D1FF90191838083F3010E
:10594000EFCFF093BE04E093BD0469CF481659062B
:1059500008F42C017D01D3019ACFCB010E94DD2AEE
:105960007C01009749F0AE01B8010E94E62CC80105
:105970000E94792B870153CF10E000E050CF0F93A6
:105980001F93CF93DF938C01FC0101900020E9F776
:10599000CF01801B910B0E94DD2AEC01009719F0CA
:1059A000B8010E94F62CCE01DF91CF911F910F918B
:1059B0000895FB01DC0104C08D910190801921F450
:1059C00041505040C8F7881B990B0895FB01DC013A
:1059D00002C001900D9241505040D8F70895DC016B
:1059E00001C06D9341505040E0F70895FB01DC0188
:1059F00001900D920020E1F7089510E0C2E6D0E09A
:105A000004C0FE010E94D72A2196C336D107C9F7E8
:045A1000F894FFCF38
:105A1400DEADBEEFFEED00C0010000000000BF04DB
:105A2400800001005E00000000000000920A8C1655
:105A3400200BA601A201801807137C15171413125A
:105A4400CA0A681B8712AA186118190B090B050BDF
:105A5400010B000000005404B403E103A104120488
:105A6400F003040400000000B30AC61683166E1681
:105A74008817661C1613FA14DB1B801C4E122C129A
:105A8400360B3E0B4111330B310BA80A270BEE1CCE
:105A9400B31C891C230B000000009A0B0D0A006341
:105AA4006F6E6E656374696E672E2E2E006172646C
:105AB40075696E6F00686976656D712E77656263CE
:105AC4006C69656E742E313733343732393236317E
:105AD40032303300473679266C37306525553142EC
